:020000000120DD
:1000200075A8927589027580007590117F007E0019
:10003000115020810520800D80F620967520956A4C
:1000400020945F113020925220914720903C113033
:10005000900300EE75F00A84F893FBE8C5F093FA7C
:10006000EF75F00A84F893FDE8C5F093FC12007177
:0F007000228AB0C2A0D2A08BB0C2A1D2A18CB004
:0F007F00C2A2D2A28DB0C2A3D2A322D291C280BC
:10008E007E0F1130D292C2807E1E1130D293C2806A
:10009E007E281130D295C2817F0F1130D296C28147
:0C00AE007F1E1130D297C2817F281130D4
:0A030000C0F9A4B0999282F8809031
:00000001FF
