:1000000074381172740F11727401117274061172C6
:1000100074821172743C11727431117F7436117FC5
:100020007458117F7432117F7420117F744C117FCA
:100030007443117F7444117F74C111727443117F32
:100040007449117F7452117F7443117F7455117F6D
:100050007449117F7454117F7453117F7454117F4C
:10006000744F117F7444117F7441117F7459117F53
:0F00700080FEF590C2B5C2B4D2B3C2B3118C22D8
:0F007F00F590D2B5C2B4D2B3C2B3118C22C2B3C2
:10008E00C2B5D2B47590FFD2B3E59020E7F0C2B3FB
:03009E00C2B422C7
:00000001FF
